:020000040800F2
:1000000000000520D15200081152000813520008C8
:10001000155200081752000819520008000000008D
:100020000000000000000000000000001B5200085B
:100030001D520008000000001F5200082152000855
:1000400021530008215300082153000821530008C0
:1000500021530008215300082153000821530008B0
:1000600021530008215300082153000821530008A0
:100070002153000821530008215300082153000890
:100080002153000821530008215300082153000880
:100090002153000821530008215300082153000870
:1000A000215300082552000821530008415200083E
:1000B0004D52000821530008215300082153000825
:1000C0002153000821530008215300082153000840
:1000D0002153000821530008215300082153000830
:1000E00059520008215300082153000821530008E9
:1000F0002153000821530008215300082153000810
:1001000021530008215300082153000821530008FF
:100110002153000821530008615200086D52000865
:100120002153000879520008215300082153000888
:1001300021530008215300082153000821530008CF
:1001400021530008215300082153000821530008BF
:1001500021530008215300082153000821530008AF
:10016000215300082153000821530008215300089F
:10017000215300082153000821530008215300088F
:10018000215300082153000821530008215300087F
:10019000215300082153000821530008215300086F
:1001A000215300082153000821530008215300085F
:1001B000215300082153000821530008215300084F
:0801C00021530008215300083F
:1001D00010B5054C237833B9044B13B10448AFF381
:1001E00000800123237010BD740000200000000077
:1001F000A86C000808B5034B1BB103490348AFF3D3
:10020000008008BD0000000078000020A86C0008F5
:1002100001F0FF01102A2BDB10F0070F08D010F8B7
:10022000013B013A8B422DD010F0070F42B3F6D1BB
:10023000F0B441EA012141EA014122F007047FF0D4
:1002400000070023F0E80256083C85EA010586EA2B
:10025000010685FA47F5A3FA87F586FA47F6A5FA67
:1002600087F68EB9EED1F0BC01F0FF0102F0070273
:1002700032B110F8013B013A83EA010313B1F8D11E
:100280000020704701387047002D06BF35460338FF
:10029000073815F0010F07D1013015F4807F02BF38
:1002A000013015F4C03F0130F0BC0138704700BF89
:1002B00081F0004102E000BF83F0004330B54FEA17
:1002C00041044FEA430594EA050F08BF90EA020F84
:1002D0001FBF54EA000C55EA020C7FEA645C7FEA17
:1002E000655C00F0E2804FEA5454D4EB5555B8BF3A
:1002F0006D420CDD2C4480EA020281EA030382EAAB
:10030000000083EA010180EA020281EA0303362D3C
:1003100088BF30BD11F0004F4FEA01314FF4801C0F
:100320004CEA113102D0404261EB410113F0004F21
:100330004FEA03334CEA133302D0524263EB4303D8
:1003400094EA050F00F0A780A4F10104D5F1200E76
:100350000DDB02FA0EFC22FA05F2801841F10001D1
:1003600003FA0EF2801843FA05F359410EE0A5F1A5
:1003700020050EF1200E012A03FA0EFC28BF4CF0D6
:10038000020C43FA05F3C01851EBE37101F000458C
:1003900007D54FF0000EDCF1000C7EEB00006EEB99
:1003A0000101B1F5801F1BD3B1F5001F0CD3490823
:1003B0005FEA30004FEA3C0C04F101044FEA44527A
:1003C00012F5800F80F09A80BCF1004F08BF5FEA01
:1003D000500C50F1000041EB045141EA050130BDE1
:1003E0005FEA4C0C404141EB010111F4801FA4F184
:1003F0000104E9D191F0000F04BF01460020B1FAD9
:1004000081F308BF2033A3F10B03B3F120020CDA10
:100410000C3208DD02F1140CC2F10C0201FA0CF0EE
:1004200021FA02F10CE002F11402D8BFC2F1200C53
:1004300001FA02F120FA0CFCDCBF41EA0C01904009
:10044000E41AA2BF01EB0451294330BD6FEA040452
:100450001F3C1CDA0C340EDC04F11404C4F120023D
:1004600020FA04F001FA02F340EA030021FA04F34F
:1004700045EA030130BDC4F10C04C4F1200220FAA6
:1004800002F001FA04F340EA0300294630BD21FAE4
:1004900004F0294630BD94F0000F83F4801306BFAA
:1004A00081F480110134013D4EE77FEA645C18BF9E
:1004B0007FEA655C29D094EA050F08BF90EA020F35
:1004C00005D054EA000C04BF1946104630BD91EA2D
:1004D000030F1EBF0021002030BD5FEA545C05D130
:1004E0004000494128BF41F0004130BD14F580046F
:1004F0003CBF01F5801130BD01F0004545F0FE41E3
:1005000041F470014FF0000030BD7FEA645C1ABF17
:10051000194610467FEA655C1CBF0B46024650EA4E
:10052000013406BF52EA033591EA030F41F400217A
:1005300030BD00BF90F0000F04BF0021704730B500
:100540004FF4806404F132044FF000054FF00001D5
:1005500050E700BF90F0000F04BF0021704730B596
:100560004FF4806404F1320410F0004548BF40426B
:100570004FF000013EE700BF42004FEAE2014FEAC0
:1005800031014FEA02701FBF12F07F4393F07F4F9B
:1005900081F06051704792F0000F14BF93F07F4FCD
:1005A000704730B54FF4607401F0004521F0004110
:1005B00020E700BF50EA010208BF704730B54FF096
:1005C00000050AE050EA010208BF704730B511F09B
:1005D000004502D5404261EB41014FF4806404F1D3
:1005E00032045FEA915C3FF4DCAE4FF003025FEA55
:1005F000DC0C18BF03325FEADC0C18BF033202EBDD
:10060000DC02C2F1200300FA03FC20FA02F001FA36
:1006100003FE40EA0E0021FA02F11444C1E600BFD5
:1006200070B54FF0FF0C4CF4E06C1CEA11541DBF88
:100630001CEA135594EA0C0F95EA0C0F00F0DEF853
:100640002C4481EA030621EA4C5123EA4C5350EA38
:10065000013518BF52EA033541F4801143F4801389
:1006600038D0A0FB02CE4FF00005E1FB02E506F01A
:100670000042E0FB03E54FF00006E1FB03569CF06F
:10068000000F18BF4EF0010EA4F1FF04B6F5007F75
:1006900064F5407404D25FEA4E0E6D4146EB0606E7
:1006A00042EAC62141EA55514FEAC52040EA5E5070
:1006B0004FEACE2EB4F1FD0C88BFBCF5E06F1ED81A
:1006C000BEF1004F08BF5FEA500E50F1000041EB51
:1006D000045170BD06F0004646EA010140EA0200FE
:1006E00081EA0301B4EB5C04C2BFD4EB0C0541EA20
:1006F000045170BD41F480114FF0000E013C00F335
:10070000AB8014F1360FDEBF002001F0004170BD58
:10071000C4F10004203C35DA0C341BDC04F1140471
:10072000C4F1200500FA05F320FA04F001FA05F2FD
:1007300040EA020001F0004221F0004110EBD370CA
:1007400021FA04F642EB06015EEA430E08BF20EAF6
:10075000D37070BDC4F10C04C4F1200500FA04F399
:1007600020FA05F001FA04F240EA020001F000412B
:1007700010EBD37041F100015EEA430E08BF20EA9E
:10078000D37070BDC4F1200500FA05F24EEA020EE6
:1007900020FA04F301FA05F243EA020321FA04F015
:1007A00001F0004121FA04F220EA020000EBD370CC
:1007B0005EEA430E08BF20EAD37070BD94F0000FCC
:1007C0000FD101F00046400041EB010111F4801F00
:1007D00008BF013CF7D041EA060195F0000F18BFB1
:1007E000704703F00046520043EB030313F4801FED
:1007F00008BF013DF7D043EA0603704794EA0C0FA7
:100800000CEA135518BF95EA0C0F0CD050EA4106BC
:1008100018BF52EA4306D1D181EA030101F0004139
:100820004FF0000070BD50EA410606BF1046194661
:1008300052EA430619D094EA0C0F02D150EA01366D
:1008400013D195EA0C0F05D152EA03361CBF1046AE
:1008500019460AD181EA030101F0004141F0FE414D
:1008600041F470014FF0000070BD41F0FE4141F4D1
:10087000780170BD70B54FF0FF0C4CF4E06C1CEAD1
:1008800011541DBF1CEA135594EA0C0F95EA0C0F86
:1008900000F0A7F8A4EB050481EA030E52EA033541
:1008A0004FEA013100F088804FEA03334FF0805562
:1008B00045EA131343EA12634FEA022245EA11158F
:1008C00045EA10654FEA00260EF000419D4208BF40
:1008D000964244F1FD0404F5407402D25B084FEAED
:1008E0003202B61A65EB03055B084FEA32024FF499
:1008F00080104FF4002CB6EB020E75EB030E22BFF6
:10090000B61A754640EA0C005B084FEA3202B6EBB5
:10091000020E75EB030E22BFB61A754640EA5C0064
:100920005B084FEA3202B6EB020E75EB030E22BFF4
:10093000B61A754640EA9C005B084FEA3202B6EBF5
:10094000020E75EB030E22BFB61A754640EADC00B4
:1009500055EA060E18D04FEA051545EA16754FEA16
:1009600006164FEAC30343EA52734FEAC2025FEA34
:100970001C1CC0D111F4801F0BD141EA00014FF0C3
:1009800000004FF0004CB6E711F4801F04BF014394
:100990000020B4F1FD0C88BFBCF5E06F3FF6AFAEB0
:1009A000B5EB030C04BFB6EB020C5FEA500C50F140
:1009B000000041EB045170BD0EF0004E4EEA1131C3
:1009C00014EB5C04C2BFD4EB0C0541EA045170BDCA
:1009D00041F480114FF0000E013C90E645EA060E0E
:1009E0008DE60CEA135594EA0C0F08BF95EA0C0F3C
:1009F0003FF43BAF94EA0C0F0AD150EA01347FF484
:100A000034AF95EA0C0F7FF425AF104619462CE75A
:100A100095EA0C0F06D152EA03353FF4FDAE1046BD
:100A2000194622E750EA410618BF52EA43067FF40E
:100A3000C5AE50EA41047FF40DAF52EA43057FF49E
:100A4000EBAE12E74FF0FF3C06E000BF4FF0010CA9
:100A500002E000BF4FF0010C4DF804CD4FEA410C0D
:100A60007FEA6C5C4FEA430C18BF7FEA6C5C1BD0DA
:100A700001B050EA410C0CBF52EA430C91EA030F5B
:100A800002BF90EA020F0020704710F1000F91EAB8
:100A9000030F58BF994208BF90422CBFD8176FEA86
:100AA000E37040F0010070474FEA410C7FEA6C5C54
:100AB00002D150EA013C07D14FEA430C7FEA6C5C5B
:100AC000D6D152EA033CD3D05DF8040B704700BF87
:100AD0008446104662468C461946634600E000BFD5
:100AE00001B5FFF7B7FF002848BF10F1000F01BDA7
:100AF0004DF808EDFFF7F4FF0CBF012000205DF872
:100B000008FB00BF4DF808EDFFF7EAFF34BF0120F6
:100B100000205DF808FB00BF4DF808EDFFF7E0FF8F
:100B200094BF012000205DF808FB00BF4DF808EDE0
:100B3000FFF7CEFF94BF012000205DF808FB00BF47
:100B40004DF808EDFFF7C4FF34BF012000205DF829
:100B500008FB00BF4FEA410C7FEA6C5C02D150EA0F
:100B6000013C0AD14FEA430C7FEA6C5C02D152EAA5
:100B7000033C02D14FF0000070474FF00100704776
:100B80004FEA4102B2F1E04324BFB3F5001CDCF1AF
:100B9000FE5C0DD901F0004C4FEAC0024CEA5070E7
:100BA000B2F1004F40EB830008BF20F00100704716
:100BB00011F0804F21D113F13872BCBF01F0004019
:100BC000704741F480114FEA5252C2F11802C2F14B
:100BD000200C10FA0CF320FA02F018BF40F00100CC
:100BE0004FEAC1234FEAD32303FA0CFC40EA0C007E
:100BF00023FA02F34FEA4303CCE77FEA625307D1BB
:100C000050EA01331EBF4FF0FE4040F440007047F1
:100C100001F0004040F0FE4040F40000704700BF8B
:100C200053B94AB9002908BF00281CBF4FF0FF3153
:100C30004FF0FF3000F07AB9ADF1080C6DE904CE49
:100C400000F006F8DDF804E0DDE9022304B07047A7
:100C50002DE9F0478C460D460446089E002B51D1E5
:100C60008A4217466DD9B2FA82FEBEF1000F0BD050
:100C7000CEF1200C01FA0EF520FA0CFC02FA0EF768
:100C80004CEA050C00FA0EF44FEA174A250CBCFB9F
:100C9000FAF81FFA87F90AFB18CC45EA0C4508FB5D
:100CA00009F3AB420AD9ED1908F1FF3280F0238134
:100CB000AB4240F22081A8F102083D44ED1AA4B2F3
:100CC000B5FBFAF00AFB105544EA054400FB09F9AC
:100CD000A14509D9E41900F1FF3380F00A81A1454B
:100CE00040F2078102383C44A4EB090440EA084082
:100CF0000021002E61D024FA0EF4002334607360CA
:100D0000BDE8F0878B4207D9002E54D0002186E839
:100D100021000846BDE8F087B3FA83F1002940F0CE
:100D20008E80AB4202D3824200F2FA80841A65EBD5
:100D300003050120AC46002E3FD086E81010BDE828
:100D4000F08712B90127B7FBF2F7B7FA87FEBEF1B9
:100D5000000F34D1EB1B3A0C1FFA87FC0121B3FBC7
:100D6000F2F8250C02FB183345EA03450CFB08F3A7
:100D7000AB4207D9ED1908F1FF3002D2AB4200F2C5
:100D8000D1808046ED1AA3B2B5FBF2F002FB1055FC
:100D900043EA05440CFB00FCA44507D9E41900F123
:100DA000FF3302D2A44500F2B8801846A4EB0C042D
:100DB00040EA08409DE731463046BDE8F087CEF175
:100DC000200405FA0EF307FA0EF720FA04F83A0C9D
:100DD00025FA04F448EA0308B4FBF2F14FEA184597
:100DE00002FB11441FFA87FC45EA044501FB0CF3A2
:100DF000AB4200FA0EF409D9ED1901F1FF3080F091
:100E00008A80AB4240F2878002393D44EB1A1FFAD8
:100E100088F5B3FBF2F002FB103345EA034500FB13
:100E20000CF3AB4207D9ED1900F1FF386FD2AB429A
:100E30006DD902383D44EB1A40EA01418FE7C1F118
:100E4000200722FA07F88B4005FA01F448EA030369
:100E500020FA07FE4FEA134CFD404EEA040EB5FBA4
:100E6000FCF94FEA1E440CFB19551FFA83F844EABB
:100E7000054509FB08F4AC4202FA01F200FA01FA56
:100E800008D9ED1809F1FF3043D2AC4241D9A9F19C
:100E900002091D442D1B1FFA8EFEB5FBFCF00CFB56
:100EA00010554EEA054400FB08F8A04507D9E418A0
:100EB00000F1FF3529D2A04527D902381C4440EA69
:100EC0000940A4EB0804A0FB02894C45C6464D46E8
:100ED00015D312D056B1BAEB0E0364EB050404FA35
:100EE00007F7CB401F43CC40376074600021BDE85A
:100EF000F0871846F8E69046E0E6C245EAD2B8EB3D
:100F0000020E69EB03050138E4E72846D7E74046BF
:100F100091E78146BEE7014678E702383C4445E761
:100F2000084608E7A8F102083D442BE7704700BFD8
:100F300038B50E4B05460E4A18784FF47A73B3FB5A
:100F4000F0F31068B0FBF3F000F006FB044658B96C
:100F50000F2D09D8024629464FF0FF3000F0B8FAAD
:100F6000044B20461D6038BD012038BD0000002024
:100F7000080000200400002008B5032000F096FAC5
:100F80000020FFF7D5FF03F049FF002008BD000057
:100F9000034A044B11681B780B441360704700BF71
:100FA000B800002000000020014B1868704700BF07
:100FB000B800002038B50446FFF7F6FF0546631C6D
:100FC0001EBF044B1B78E418FFF7EEFF401B844262
:100FD000FAD838BD0000002010B50446002800F003
:100FE0009980036C23B9436480F83C3003F02EFFF2
:100FF000236CDB0600F18C80236C23F4885323F0F0
:10100000020343F002032364434B5A6822F4403244
:101010005A605A6861680A435A60236821695A68AD
:1010200022F480725A605A6842EA0122A1685A602A
:101030005A6822F040725A605A680A43E1685A605E
:101040009A6822F400629A609A680A4333499A6067
:10105000A26A8A4250D0996821F0706199609968BB
:101060000A43E16A9A609A6822F040529A609A684C
:101070000A439A609A68A16922F002029A609A680B
:1010800042EA41029A60226A002A3DD05A68616AA7
:1010900042F4006201395A605A6822F460425A6090
:1010A0005A6842EA41325A600020DA6AE16922F461
:1010B00070020139DA62DA6A42EA0152216BDA62BD
:1010C0009A6822F400729A609A6842EA4122616941
:1010D0009A609A6822F480629A609A6842EA812251
:1010E0009A606064236C23F0030343F001032364DC
:1010F000002384F83C3010BD9A6822F070629A6038
:101100009A6822F04052B4E75A6822F40062CAE7B3
:101110000120EDE7012010BD002301400100000F78
:10112000002382B0019390F83C30012B4ED0012374
:1011300080F83C3003689A68D10705D59A68D207D1
:1011400014D4002002B070479A68214942F001028D
:101150009A60204A1268B2FBF1F202EB420201925D
:10116000019A002AEAD0019A013AF8E7026C22F4C7
:10117000E06222F0010242F4807202645A68510572
:1011800005D5026C22F4405242F480520264026C93
:1011900012F4805202D0426C22F006024264002215
:1011A00080F83C206FF022021A600B4A5268D20687
:1011B00008D1986810F04050C3D19A6842F080423C
:1011C0009A60BFE7054A9342BBD1F2E70220B9E734
:1011D00040420F0008000020002301400020014091
:1011E00037B5134600220446019290F83C20012AAC
:1011F00065D00122056880F83C20AA68D20705D591
:10120000AA68D00715D4002003B030BDAA6842F008
:101210000102AA602B4A10682B4AB0FBF2F000EBE7
:1012200040000190019A002AEAD0019A013A019205
:10123000F8E7206C20F4E06020F0010040F48070BA
:1012400020646A68520505D5206C20F4405040F4B3
:1012500080502064226C12F4805202D0626C22F022
:10126000060262640022A06B84F83C20174AC26325
:10127000174A0264174AC2646FF022022A606A6841
:1012800042F080626A60AA6842F48072AA600A46EC
:1012900005F14C0100F00AFA0F4B5B6813F01F0FC9
:1012A000236808D1986810F04050ACD19A6842F099
:1012B00080429A60A8E7094A9342A4D1F2E702204B
:1012C000A2E700BF0800002040420F00E91200081A
:1012D0004B13000857130008002301400020014071
:1012E0000368D86C70477047836B1A6C12F0500F0C
:1012F00010B524D11A6C42F400721A641A6891680D
:1013000011F0405F17D19969A9B9D16A11F4700F32
:1013100002D0916849050ED4516821F02001516036
:101320001A6C22F480721A641A6CD20403D41A6CF8
:1013300042F001021A641846FFF7D5FF10BD9B6BFF
:10134000BDE81040DB6C1847704708B5806BFFF7AD
:10135000FBFF08BD704708B5806B40230364436CF6
:1013600043F004034364FFF7F5FF08BD0023F7B51E
:10137000019390F83C30012B71D00D680123046873
:10138000092D80F83C30AEB28A6831D906EB4603AD
:101390004FF0070EE7681E3B0EFA03FE27EA0E0722
:1013A000E7603D4FBD421ED1E36843EA0263E3605C
:1013B0004A68062A4FEA82032AD81344676B591FEA
:1013C0001F238B4006FA01F127EA03036363626B74
:1013D00011436163314B9C4239D0002380F83C308B
:1013E000184603B0F0BDE76802FA03F33B43DEE7BB
:1013F00005EB45034FF0070E27690EFA03FE02FACC
:1014000003F327EA0E07276127693B432361CFE7F0
:101410000C2A0ED81344216BA3F123021F239340FF
:1014200006FA02F221EA03032363236B1A432263C1
:10143000D0E713441F22E16A413B9A4021EA0202AD
:1014400006FA03F1E262E26A1143E162C2E7122D99
:1014500007D1134A536843F480035360BDE7022069
:10146000BFE70D4B9D4201D0112DB6D10C499D42D5
:101470004A6842F400024A60AFD10A4B0A4A1B682C
:10148000B3FBF2F20A2353430193019B002BA4D038
:10149000019B013BF8E700BF120000100020014053
:1014A000002301400800002040420F00074A0002CC
:1014B000D36800F4E06023F4E0631B041B0C43F0EA
:1014C000BF6343F400330343D360704700ED00E093
:1014D000194B30B5DC68C4F30224C4F10703251DA1
:1014E000042B28BF0423062D4FF001058CBF033CBD
:1014F000002405FA03F3002803F1FF3301EA030196
:1015000001FA04F105FA04F404F1FF3402EA0402DA
:1015100042EA01024FEA021205DA00F00F00D2B2ED
:10152000064B1A5430BD00F16040D2B200F5614064
:1015300080F8002330BD00BF00ED00E014ED00E0B6
:101540004209012300F01F0003FA00F0014B43F8A9
:101550002200704700E100E00138B0F1807F0AD23C
:10156000064BF021064A5860002082F8231007221B
:1015700098601A6070470120704700BF10E000E0DB
:1015800000ED00E003681821DAB223F47F73103A0B
:1015900023F00303B2FBF1F20449032A895C88BFFC
:1015A0000433C1658365806D704700BFD46C00084B
:1015B00070B50446FFF7F8FC0546002C71D00023F7
:1015C000226884F83430022384F83530136823F01D
:1015D0000103136021680B68D8073CD40B68324DB7
:1015E00062681D40A368A0691343E268134322693F
:1015F000134362691343E26903431343226A1343AB
:10160000626A042A43EA050301BF266BE56A354393
:101610002B43042A0B604B6923F0070343EA0203C0
:101620000BD1A26AE56A13433DB1F8B9012A2DD066
:1016300001D3022A01D1EA012BD44B612046FFF7E6
:10164000A1FFE26D3F23934083600020012360658A
:1016500084F8353070BDFFF7A7FC401B0528B9D9C9
:1016600020230320636584F8350070BDB0F5005F6A
:1016700013D1032AE1D801A050F822F093160008F4
:1016800037160008931600088D160008B5F1C07FC4
:10169000D3D1402301206365E5E7022AF9D9032A63
:1016A000C8E7012070BD00BF3F8010F070B590F812
:1016B0003440012C35D00124866D002580F834405B
:1016C00090F83540012C4FF0020428D180F83540C5
:1016D00004684565256825F4802525606360836876
:1016E000402B19D1A260E160C26D3F239340B360EB
:1016F000236843F016032360636943F0800363614A
:10170000036C1BB1236843F00803236023680020A7
:1017100043F00103236070BDA160E260E4E780F85C
:101720003450022070BD00000023F7B50193082259
:10173000594B0446856D1F68C36D2E689A4016424A
:101740000CD001680868400708D5086820F004003C
:101750000860AA60626D42F00102626501229A404F
:10176000164208D021684969090604D5AA60626D4D
:1017700042F00202626504229A40164208D02168B3
:101780000968880704D5AA60626D42F004026265A8
:1017900010229A40164210D02368196809070CD508
:1017A000AA601A68500335D51B68190301D4236C4D
:1017B00000E0A36C0BB120469847E16D20228A40DF
:1017C000164238D023681868C60634D5AA6094F843
:1017D0003520052A1A6825D122F016021A605A69A6
:1017E00022F080025A61226C0AB9A26C1AB11A68FE
:1017F00022F008021A603F238B40AB60002384F87C
:101800003430012384F83530236D0BB120469847DE
:1018100003B0F0BD1A68D205C9D41A6822F00802D4
:101820001A60C4E7500328D51B68190332D4636CCF
:101830000BB120469847636D002BE9D0636DDA0742
:1018400019D50523226884F83530136823F0010385
:1018500013604FF41653B7FBF3F7019B01339F421C
:10186000019302D31368DB07F7D4002384F83430E4
:10187000012384F83530E36CC7E71A6812F48072EC
:1018800008D1196821F010011960012384F834206F
:1018900084F83530E36BCBE7080000202DE9F04FEA
:1018A0000B6885B0DFF8C081019300236C4ADFF834
:1018B000BC914FF0010E019C0EFA03FE0EEA0406E5
:1018C000B64540F0B3804C6824F01007022F16D1C3
:1018D0004FEAD30A03F0070B4FF00F0C00EB8A0A14
:1018E0004FEA8B0BDAF820500CFA0BFC25EA0C0CB3
:1018F0000D6905FA0BF545EA0C05CAF820504FEAC8
:10190000430A0325D0F800B004F0030C05FA0AF5E9
:10191000013F0CFA0AFCED43012F0BEA050B4CEAE0
:101920000B0CC0F800C011D8876807EA050BCF6818
:1019300007FA0AFC4CEA0B078760476827EA0E0E95
:10194000C4F300179F4047EA0E074760C7683D4051
:101950008F6807FA0AF73D43C560E50066D5D8F8F9
:10196000445023F0030703F0030E4FF00F0C45F42F
:10197000804507F180474FEA8E0EC8F8445007F5BE
:101980009C37D8F8445005F480450395039D0CFA24
:101990000EF5D7F808A02AEA050C324DA8424CD023
:1019A00005F58065A8424AD005F58065A84248D073
:1019B00005F58065A84246D005F58065A84244D06B
:1019C000484544D005F50065A84242D005F580653C
:1019D000A84240D005F58065A8423ED005F5806557
:1019E000A84214BF0A25092505FA0EF514F4803F14
:1019F00045EA0C05BD606FEA060715680CBF3D405F
:101A0000354314F4003F156055680CBF3D40354325
:101A100014F4801F556095680CBF3D403543A40207
:101A20009560D56854BF3D403543D5600133102BD8
:101A30007FF43FAF05B0BDE8F08F0025D4E7012566
:101A4000D2E70225D0E70325CEE70425CCE705251C
:101A5000CAE70625C8E70725C6E70825C4E700BF8B
:101A6000003C0140000002400038024000140240E7
:101A70000369194214BF0120002070470AB1816137
:101A800070470904FBE7436959404161704770475B
:101A900008B5044B5969014202D05861FFF7F7FFBE
:101AA00008BD00BF003C014003689A69910701D559
:101AB00000229A629A69D20703D49A6942F001021D
:101AC0009A61704730B5039CC1F30901056823434F
:101AD000640D686804F48064194344F07F7441EA3B
:101AE000024144F4583444F47F7444F0030420EA7F
:101AF00004042143696030BD2DE9F041069F04468E
:101B0000884616461D462268936938EA03030CBFCF
:101B100001230023B34202D00020BDE8F0816B1CFA
:101B2000F2D055B92023032084F84130002384F8F3
:101B3000423084F84030BDE8F081FFF735FAC01B31
:101B40008542E0D2EEE7036870B5044698690D4619
:101B5000164610F0100012D170BD691C10D04DB99E
:101B60002023032084F84130002384F8423084F895
:101B7000403070BDFFF718FA801B8542F0D3236810
:101B800099698A06E9D5102220252046DA61DD61AF
:101B9000FFF78AFF22680120536823F0FF7323F4C4
:101BA0008B3323F4FF7323F0010353600423636436
:101BB000002384F8415084F8403084F8423070BDEE
:101BC00070B504460D46164623689B699B0701D5F0
:101BD000002070BD324629462046FFF7B4FFB0B959
:101BE0006A1CF1D06DB9636C032043F02003636479
:101BF000202384F84130002384F8423084F84030B8
:101C000070BDFFF7D1F9801B8542DDD2EBE70120E3
:101C100070BD0000F7B51F46184B0446099E00939F
:101C200015464FF08073FAB2FFF74CFF3246089921
:101C30002046FFF7C5FF28B1636C042B10D10120AB
:101C400003B0F0BD012F23680CD1EDB2002280213A
:101C500020469D62089B0096FFF74EFF0028EFD0BC
:101C60000320EDE72A0A089920469A623246FFF7D8
:101C7000A7FF0028E0D12368E7E700BF002000802D
:101C8000F7B51F46174B0446099E009315460023DF
:101C9000FAB2FFF717FF324608992046FFF790FF88
:101CA00028B1636C042B10D1012003B0F0BD012FCB
:101CB00023680CD1EDB20022402120469D62089B92
:101CC0000096FFF719FF0028EFD00320EDE72A0A5E
:101CD000089920469A623246FFF772FF0028E0D149
:101CE0002368E7E70020008070B504460D461646DD
:101CF00023689B699B0601D5002070BD32462946AA
:101D00002046FFF720FFA0B96DB9636C032043F0B4
:101D100020036364202384F84130002384F8423098
:101D200084F8403070BDFFF73FF9801B8542DFD259
:101D3000EBE7012070BD10B5044600284AD090F8AA
:101D4000413003F0FF021BB980F8402003F0F4F8A3
:101D50002423E16884F84130012923681A6822F0BD
:101D600001021A60626822F070621A619A6822F4B5
:101D700000429A60A26824D142F400429A605A68F4
:101D80000020616942F0007242F400425A60DA6851
:101D900022F40042DA6022690A43A16942EA012280
:101DA000216ADA60E2690A431A601A6842F00102A5
:101DB0001A602023606484F84130206384F8420074
:101DC00010BD42F4044202299A60D8D14FF4006257
:101DD0005A60D4E7012010BD2DE9F04F9B4690F8E2
:101DE000413085B00446202B0F460392BDF83CA03D
:101DF000DDF8409040F0A6800E9B1BB9012005B095
:101E0000BDE8F08FBAF1000FF8D090F84030012B08
:101E100000F09880012580F84050FFF7C5F819239D
:101E2000009006462A464FF400412046FFF764FE24
:101E30008046D0B9212360630196394684F8413049
:101E40004023CDF8009084F842300E9B6064204619
:101E500063625B46A4F82AA0039AFFF7DBFE30B169
:101E6000636C84F84080042BC8D00320C7E7638DDF
:101E70009BB2FF2B10D9FF224FF080730090228578
:101E800039462046FFF71EFE324649462046FFF7F8
:101E900097FE48B1636CE6E7628D4FF000730090E7
:101EA00092B22285D2B2EBE7636A2268591C616262
:101EB0001B789362228D638D013A013B92B29BB2F3
:101EC00022856385BAB9638D9BB2A3B100964B4658
:101ED00080212046FFF710FE0028C6D1638D9BB2FB
:101EE000FF2B27D9FF224FF08073009022853946BF
:101EF0002046FFF7E7FD638D9BB2002BC4D132462D
:101F000049462046FFF7F0FE0028C3D12368202170
:101F1000D9615A6822F0FF7222F48B3222F4FF72E8
:101F200022F001025A6084F8411084F8400084F8DD
:101F3000420064E7628D4FF00073009092B22285F8
:101F4000D2B2D4E702205AE72DE9F04F9B4690F831
:101F5000413085B00446202B0F460392BDF83CA0CB
:101F6000DDF8409040F0A9800E9B1BB9012005B020
:101F7000BDE8F08FBAF1000FF8D090F84030012B97
:101F800000F09B80012580F84050FFF70DF81923E1
:101F9000009006462A464FF400412046FFF7ACFD6C
:101FA0008046D0B9222360630196394684F84130D7
:101FB0004023CDF8009084F842300E9B60642046A8
:101FC00063625B46A4F82AA0039AFFF759FE30B17A
:101FD000636C84F84080042BC8D00320C7E7638D6E
:101FE0009BB2FF2B364B44D9FF2200934FF08073F6
:101FF000228539462046FFF765FD00964B460022B4
:1020000004212046FFF778FD0028E6D1636A5A1CB8
:1020100062622268526A1A70228D638D013A013B16
:1020200092B29BB222856385BAB9638D9BB2A3B18C
:1020300000964B4680212046FFF75EFD0028CCD15C
:10204000638D9BB2FF2B1CD9FF224FF08073009051
:10205000228539462046FFF735FD638D9BB2002B64
:10206000CBD1324649462046FFF73EFE88B1636C2D
:10207000B1E7628D00934FF0007392B22285D2B225
:10208000B7E7628D4FF00073009092B22285D2B212
:10209000DFE723682021D9615A6822F0FF7222F419
:1020A0008B3222F4FF7222F001025A6084F8411050
:1020B00084F8400084F8420059E7022057E700BF47
:1020C0000024008090F84120D2B2202A10B51DD102
:1020D00090F84030012B19D0242380F84130036858
:1020E0001C6824F001041C601C6824F480541C60EB
:1020F0001C6821431960196841F00101196000232F
:1021000080F8412080F84030184610BD022010BDF4
:1021100010B590F84140E4B2202C1CD190F840302A
:10212000012B18D0242380F8413003681A6822F06C
:1021300001021A601A6822F4706242EA01211960F1
:102140001A6842F001021A60002380F8414080F8CA
:102150004030184610BD022010BD00002DE9F341AB
:10216000044618B9012002B0BDE8F0810368D80721
:1021700010D4236899075ED42368190700F1A3805F
:1021800023685A0700F1C480A269002A40F02E811A
:102190000020E8E7934B9A6802F00C02042A07D06B
:1021A0009A6802F00C02082A0AD15B685A0207D525
:1021B0008C4B1B689B03DCD56368002BD9D1D1E71E
:1021C0006368884DB3F5803F11D12B6843F48033A9
:1021D0002B60FEF7E9FE834D06462B689F03C8D4AB
:1021E000FEF7E2FE801B6428F7D90320BBE79BB90A
:1021F0002B6823F480332B602B6823F480232B601F
:10220000FEF7D2FE06462B689803B2D5FEF7CCFE49
:10221000801B6428F7D9E8E7B3F5A02F2B6803D11A
:1022200043F480232B60D0E723F480332B602B68AA
:1022300023F48023CCE76B4B9A6812F00C0F07D085
:102240009A6802F00C02082A11D15B6859020ED478
:10225000644B1A68920702D5E268012A82D11A6893
:10226000216922F0F80242EAC1021A6084E7E368B9
:102270005C4DBBB12B6843F001032B60FEF794FE6D
:1022800006462B689F0707D52B68226923F0F803C1
:1022900043EAC2032B606FE7FEF786FE801B02282D
:1022A000EFD9A2E72B6823F001032B60FEF77CFE39
:1022B00006462B6898077FF55FAFFEF775FE801B1B
:1022C0000228F6D991E76369464D83B16B6F43F0FD
:1022D00001036B67FEF768FE06466B6F9B073FF5D1
:1022E0004FAFFEF761FE801B0228F6D97DE76B6FCA
:1022F00023F001036B67FEF757FE06466B6F9F07DF
:102300007FF53EAFFEF750FE801B0228F6D96CE742
:10231000344B1A6CD00027D41A6C012642F080523C
:102320001A641B6C03F080530193019B2E4D2B68A4
:10233000D9051BD5A3682B4D012B27D12B6F43F05B
:1023400001032B6741F28835FEF72EFE254F8046AC
:102350003B6F9B073FD5002E3FF416AF214A136C0D
:1023600023F0805313640FE70026DFE72B6843F464
:1023700080732B60FEF718FE07462B68DA05D9D468
:10238000FEF712FEC01B6428F7D92EE7ABB92B6FFE
:1023900041F2883823F001032B672B6F23F00403ED
:1023A0002B67FEF701FE07462B6F9807D3D5FEF784
:1023B000FBFDC01B4045F7D917E7052B2B6F03D159
:1023C00043F004032B67B9E723F001032B672B6F5E
:1023D00023F00403B5E7FEF7E7FDA0EB0800A842F1
:1023E000B6D902E70038024000700040244DAB68C7
:1023F00003F00C03082B3FF4B5AE2B68022A23F040
:1024000080732B602ED1FEF7CFFD06462B68990115
:1024100022D4226AE3691343626A43F0005343EA19
:102420008213E26A43EA0263A26A154C5208013A37
:1024300043EA02436B602B6843F080732B60FEF726
:10244000B3FD054623689A013FF5A2AEFEF7ACFD49
:10245000401B0228F6D9C8E6FEF7A6FD801B02281D
:10246000D4D9C2E6FEF7A0FD04462B689B017FF598
:102470008FAEFEF799FD001B0228F6D9B5E600BF26
:1024800000380240134908B58B6803F00C03042B95
:1024900003D0082B03D0104808BD104808BD4A6877
:1024A0004B68496802F03F0213F48003C1F38811BE
:1024B0001ABF0A4800230848A1FB0001FEF7B0FB41
:1024C000044B5B68C3F3014301335B00B0FBF3F0E3
:1024D00008BD00BF003802400024F40040787D01B0
:1024E0002DE9F0410D46044610B90120BDE8F08108
:1024F000464A136803F00F038B4228D321688F07E5
:1025000030D4C80743D4414A136803F00F039D42F7
:1025100067D32268510770D4130707D53C4A216955
:10252000936823F4604343EAC1039360FFF7AAFF73
:10253000374B384A9B68C3F30313D35CD840364B00
:1025400018600020FEF7F4FC0020BDE8F08113685D
:1025500023F00F030B431360136803F00F0399423A
:10256000C3D1CBE711F0040F294B03D09A6842F492
:10257000E0529A600E0703D59A6842F460429A606E
:102580009A68A06822F0F00202439A60B9E7616895
:102590001F4B01291A681CD112F4003FA5D09A687C
:1025A00041F288381A4E22F003020A439A60FEF77D
:1025B000FBFC0746B368626803F00C03B3EB820FC1
:1025C000A1D0FEF7F1FCC01B4045F3D90320BDE8C4
:1025D000F081022902D112F0007FDFE712F0020F32
:1025E000DCE7136823F00F032B431360136803F039
:1025F0000F039D427FF479AF8BE70549E0688B6854
:1026000023F4E05303438B6086E700BF003C0240A5
:1026100000380240466D000808000020044B054ABF
:102620009B68C3F38223D35C034A1068D840704789
:1026300000380240566D000808000020044B054A8F
:102640009B68C3F34233D35C034A1068D840704799
:1026500000380240566D0008080000202DE9F743BD
:102660000268044612F001060BD0B84B996821F4B9
:1026700000019960466B99683143B6FA86F676098F
:10268000996012F4002512D0B049E56BD1F88C3076
:10269000B5F5801F23F4401308BF012643EA050364
:1026A00016BFB5FA85F500256D09C1F88C30D10249
:1026B00010D5A648216CD0F88C30B1F5800F23F4EA
:1026C000400343EA0103C0F88C3000F08581002903
:1026D00008BF012512F0807F18BF0126920631D570
:1026E0009A4B9B4F1A6C42F080521A641B6C03F099
:1026F00080530193019B3B6843F480733B60FEF77A
:1027000053FC80463B68DB0540F168818F4F3B6F8F
:1027100013F4407340F06D81236B03F44072B2F503
:10272000407F8A4A40F08B81916823F0704021F409
:10273000F81120F4407001439160C3F30B03116F53
:102740000B4313672368DA060CD5804AD2F88C1045
:1027500021F08071C2F88C10D2F88C10A06B01436C
:10276000C2F88C105F0408D57849606ED1F89020CB
:1027700022F440320243C1F89020180408D573496E
:10278000A06ED1F8902022F440220243C1F890209C
:10279000D90308D56D49E06ED1F8902022F440129B
:1027A0000243C1F890209A0308D56849206FD1F8F8
:1027B000902022F440020243C1F890205F0608D521
:1027C0006249606CD1F8902022F003020243C1F804
:1027D0009020180608D55D49A06CD1F8902022F011
:1027E0000C020243C1F89020D90508D55749E06C86
:1027F000D1F8902022F030020243C1F890209A05CF
:1028000008D55249206DD1F8902022F0C002024331
:10281000C1F890205F0508D54C49606DD1F8902033
:1028200022F440720243C1F89020180508D54749A8
:10283000A06DD1F8902022F440620243C1F89020AC
:10284000D90408D54149E06DD1F8902022F44052D6
:102850000243C1F890209A0408D53C49206ED1F873
:10286000902022F440420243C1F890205F0208D534
:102870003649A06FD1F8902022F080620243C1F85F
:10288000902098020CD53148E16FD0F89020B1F13A
:10289000006F22F0006208BF01250A43C0F89020B3
:1028A00013F0080F18BF0125590308D52749606F99
:1028B000D1F8902022F040720243C1F890201A0211
:1028C00009D52249D4F88000D1F8902022F0805216
:1028D0000243C1F89020012E00F0B580B3F1007FD3
:1028E00000F0B180012D75D1184D2B6823F0805375
:1028F0002B60FEF759FB06462B689F0000F12781ED
:1029000021680E0301D5E36B1BB1CD0222D5236CE8
:1029100003BB0E4AD2F88830D2F8880003F4403363
:1029200000F0E0400343606943EA8013A06943EA92
:102930000063C2F88830D2F88C30A06A23F4F853D0
:10294000013843EA0023C2F88C3003E0003802402B
:1029500000700040880215D5E36FB3F1006F11D10C
:10296000824AD2F88830D2F8880003F0706300F011
:10297000E0400343606943EA8013206A43EA00436E
:10298000C2F888300A0719D57849D1F88820D1F8DB
:10299000883002F0706203F440331343626943EA03
:1029A0008213E26943EA0273C1F88830D1F88C30AF
:1029B000E26A23F440331343C1F88C306B4C236834
:1029C00043F080532360FEF7EFFA054623689B002F
:1029D00040F1C480002009E001267BE6FEF7E4FA1E
:1029E000A0EB080064287FF68DAE032003B0BDE89D
:1029F000F083226B02F4407293423FF48DAE3B6F42
:102A00003A6F23F4407342F480323A673A6F22F40B
:102A100080323A673B673B6FD8077FF57DAEFEF7A4
:102A2000C3FA41F2883980463B6F99073FF574AE8F
:102A3000FEF7BAFAA0EB08004845F5D9D5E791684A
:102A400021F4F81178E6494E336823F0806333604F
:102A5000FEF7AAFA074633681B0172D42268D7072B
:102A600012D5636B83B9D6F88430D6F8841003F49A
:102A7000403301F070610B43616843EA8113A16840
:102A800043EA0173C6F88430160303D5E36BB3F54C
:102A9000801F05D0D0021ED5236CB3F5800F1AD14C
:102AA0003249D1F88430D1F8840003F4403300F087
:102AB000E0400343606843EA8013E06843EA006350
:102AC000C1F88430D1F88C00636A20F01F00013B0C
:102AD0000343C1F88C30D10111D52449D1F8843099
:102AE000D1F8840003F0706300F0E04003436068B5
:102AF00043EA8013206943EA0043C1F8843092011D
:102B00000DD5236962681B0443EA8213E26843EA35
:102B10000263A26843EA0273144AC2F88430134E77
:102B2000336843F080633360FEF73EFA074633684C
:102B30001B013FF5D7AEFEF737FAC01B6428F6D964
:102B400053E7FEF731FAC01B642884D94DE7FEF73E
:102B50002BFA801B64287FF6CFAE46E7FEF724FAF7
:102B6000401B64287FF632AF3FE700BF00380240C9
:102B7000036A10B5046A23F00A0324F001040B432E
:102B80000462846924F0F00444EA02128261036260
:102B900010BD036A23F0100310B503628469036A51
:102BA00024F4704423F0A00344EA023243EA011300
:102BB0008261036210BD03680020DA6842F00102FE
:102BC000DA601A6842F001021A6070477047704775
:102BD00070477047704703681A69910710B504463B
:102BE0000FD5DA6892070CD56FF002021A61012244
:102BF0009B690277990700F08580FFF7E9FF0023C2
:102C0000237723681A69520710D5DA6850070DD563
:102C10006FF0040220461A6102229B69227713F4A6
:102C2000407F75D0FFF7D4FF0023237723681A690C
:102C300011070FD5DA6812070CD56FF0080220468D
:102C40001A610422DB6922779B0767D0FFF7C0FF78
:102C50000023237723681A69D00610D5DA68D106D5
:102C60000DD56FF0100220461A610822DB69227729
:102C700013F4407F58D0FFF7ABFF0023237723687E
:102C80001A69D20708D5DA68D00705D56FF00102B6
:102C900020461A6101F0A2FD23681A69110608D5C1
:102CA000DA68120605D56FF0800220461A6100F03E
:102CB000ACFB23681A69D00508D5DA68110605D57A
:102CC0006FF0800220461A6100F09FFB23681A69AA
:102CD000520608D5DA68500605D56FF04002204646
:102CE0001A61FFF777FF23681A69910622D5DA681F
:102CF00092061FD56FF0200220461A61BDE81040F1
:102D000000F082BBFFF763FF2046FFF762FF76E724
:102D1000FFF75DFF2046FFF75CFF85E7FFF757FFF2
:102D20002046FFF756FF93E7FFF751FF2046FFF7D6
:102D300050FFA2E710BD0000304A0368904212D055
:102D4000B0F1804F0FD0A2F57C4290420BD002F53B
:102D50008062904207D002F58062904203D002F573
:102D6000784290421DD14A6823F070031343234AEE
:102D7000904204D123F44073CA68134328E0B0F1B1
:102D8000804FF7D01E4A9042F4D002F58062904204
:102D9000F0D002F580629042ECD002F57842904289
:102DA000E8D0184A9042E5D002F580629042E1D026
:102DB00002F580629042DDD0A2F598329042D9D0DF
:102DC00002F580629042D5D002F580629042D1D067
:102DD0004A6923F08003134303608B68C3620B6866
:102DE0008362064B984206D003F58063984202D076
:102DF0000123436170470B690363F9E70000014059
:102E0000000400400040014010B50446A0B190F815
:102E10003D3003F0FF021BB980F83C2002F02CF992
:102E200002232068211D84F83D30FFF785FF012330
:102E3000002084F83D3010BD012010BD10B50446BF
:102E4000A0B190F83D3003F0FF021BB980F83C20A0
:102E5000FFF7BCFE02232068211D84F83D30FFF7F8
:102E60006BFF0123002084F83D3010BD012010BD10
:102E700010B50446A0B190F83D3003F0FF021BB935
:102E800080F83C2002F0B6F802232068211D84F867
:102E90003D30FFF751FF0123002084F83D3010BD85
:102EA000012010BD036A23F0010370B50362036AB9
:102EB0004268846923F002030D6824F4803424F00E
:102EC00073042C438D682B430C4DA84209D005F5A3
:102ED0008065A84205D042604A688461426303620B
:102EE00070BDCD6823F008038E6922F440722B4335
:102EF0004D69354323F004032A43ECE70000014009
:102F0000036A23F0100370B50362036A42688469A0
:102F100023F020030D6824F0807424F4E64444EA8E
:102F200005248D6843EA05130D4DA84209D005F527
:102F30008065A84205D042604A688461826303626A
:102F400070BDCD6823F080038E6922F4406243EAAD
:102F500005134D69354323F0400342EA8502EAE751
:102F600000000140036A23F4807370B50362036AB2
:102F70004268C46923F400730D6824F4803424F09B
:102F800073042C438D6843EA05230E4DA84209D0F3
:102F900005F58065A84205D042604A68C461C263F5
:102FA000036270BDCD6823F400638E6922F4405241
:102FB00043EA05234D69354323F4806342EA051251
:102FC000EAE700BF00000140036A23F4805330B5F4
:102FD0000362046A4268C36924F400540D6823F054
:102FE000807323F4E64343EA05238D6844EA0534FD
:102FF000094DA84209D005F58065A84205D0426078
:10300000C3614B680364046230BD22F480424D69A1
:1030100042EA8512F3E700BF0000014070B5046A80
:103020001A4E24F00104B04204628469056A1AD081
:10303000B0F1804F17D0A6F57C46B04213D006F50C
:103040008066B0420FD006F58066B0420BD006F520
:103050007846B04207D006F57056B04203D0A6F5C8
:103060009436B0420FD124F0030422431B0122F016
:10307000F00225F00A0501F00A01DBB229431A43E8
:103080008261016270BD44F00102EFE7000001407F
:10309000F8B590F83C3004460D460220012B19D0BB
:1030A000012384F83D0084F83C30A2B9CB68206845
:1030B00006C9FFF7B3FF2368A9689A6922F00C02DA
:1030C0009A619A690A439A610123002084F83D308D
:1030D00084F83C00F8BD042A8E682368E86882C939
:1030E0001FD11A6A0003090122F0100280B201F018
:1030F000A0011A629A691D6A22F4407242EA07220C
:1031000022F47042024325F0A00001439A61196243
:103110009A6922F440629A619A6942EA06269E619F
:10312000D2E7082A1A6A1CD122F48072000109022F
:103130001A62C0B2DA6901F420611D6A22F003024A
:103140003A4322F0F002024325F420600143DA61A1
:103150001962DA6922F00C02DA61DA691643DE617B
:10316000B2E722F48052000309031A6280B2DA69DE
:1031700001F420411D6A22F4407242EA072222F43F
:103180007042104325F420421143D8611962DA6974
:1031900022F44062DA61DA6942EA0626DFE710B516
:1031A0000A43846842EA032324F47F442343836070
:1031B00010BD000090F83C30012B10B504464FF0D4
:1031C000020018D084F83D000123206884F83C30C8
:1031D00082683E4B134083600B68402B59D015D852
:1031E000102B67D008D8002B5ED00123002084F874
:1031F0003D3084F83C0010BD202B61D0302BF4D141
:10320000836823F0700343F0370326E0702B26D049
:103210000ED8502B32D0602BE7D1CA684968FFF72F
:10322000B8FC2268936823F0700343F0670323E03F
:10323000B3F5805F0CD0B3F5005FD6D1CB684A6898
:103240008968FFF7ACFF2268936843F4804313E07A
:10325000836823F4803323F007038360C5E7CB68DA
:103260004A688968FFF79BFF2268936823F48033DC
:1032700023F0770343F077039360B6E7CA684968A1
:10328000FFF776FC2268936823F0700343F057033E
:10329000F2E7CA684968FFF76BFC2268936823F07D
:1032A000700343F04703E7E7836823F0700343F0BC
:1032B0000703D2E7836823F0700343F01703CCE7DA
:1032C000836823F0700343F02703C6E78800FEFFFE
:1032D00010B50124036A8A408C4023EA0403036288
:1032E000036A1A43026210BD10B504460122006849
:1032F000FFF7EEFF2368084A934203D002F580628D
:10330000934203D15A6C42F400425A641A68002076
:1033100042F001021A6010BD00000140036A23F46C
:10332000803330B50362026A4468436D22F4003290
:103330000D6823F4803323F070032B438D6842EA39
:103340000542094DA84203D005F58065A84204D185
:1033500024F480344D6944EA0524446043654B6895
:103360008365026230BD00BF00000140036A23F4A0
:10337000801330B50362026A4468436D22F4001280
:103380000D6823F0807323F4E04343EA05238D683E
:1033900042EA0552084DA84203D005F58065A842CF
:1033A00004D124F480244D6944EA852444604365B3
:1033B0004B68C365026230BD0000014090F83C30AC
:1033C000012B30B51CD002680E4D5368AA42946898
:1033D00003D005F58065AA4203D123F470034D683C
:1033E0002B430D6823F07003896824F080042B437D
:1033F000214353600023916080F83C30184630BD73
:10340000022030BD000001407047704738B590F889
:103410003C3004460D460220012B10D00123082A1F
:1034200084F83D0084F83C3043D009D8FAB1042A2E
:103430002ED00123002084F83D3084F83C0038BDB4
:10344000102A47D0142A56D00C2AF2D12068FFF750
:10345000BBFD23682969DA6942F40062DA61DA693E
:1034600022F48062DA61DA6942EA012230E02068FF
:10347000FFF718FD236829699A6942F008029A61EA
:103480009A6922F004029A619A690A439A61D0E724
:103490002068FFF735FD236829699A6942F40062C4
:1034A0009A619A6922F480629A619A6942EA0122D9
:1034B000ECE72068FFF756FD23682969DA6942F0D6
:1034C0000802DA61DA6922F00402DA61DA690A4391
:1034D000DA61AEE72068FFF721FF236809695A6DBA
:1034E00042F008025A655A6D22F004025A655A6D7C
:1034F0000A435A659DE72068FFF738FF236809698A
:103500005A6D42F400625A655A6D22F480625A651F
:103510005A6D42EA0122ECE72DE9F041069D04468E
:103520000F46164698462168CA6937EA02030CBF5F
:1035300001220022B24202D00020BDE8F0816B1CC3
:10354000F2D09DB9236803201A6822F4D0721A6061
:103550009A6822F001029A60202384F8693084F886
:103560006A30002384F86830BDE8F081FDF71CFD67
:10357000A0EB08008542D6D8E4E72DE9F3411F46C9
:1035800090F8693004460D46202B90464CD1002916
:1035900048D0002A46D090F86830012B44D001234F
:1035A00080F868300023C366212380F86930FDF776
:1035B000FBFC0646A4F85080A4F85280B4F85220D0
:1035C00092B262B90097334640212046FFF7A4FF2C
:1035D00098B9202384F8680084F869300EE0B4F8C4
:1035E0005230002200978021013B20469BB2A4F874
:1035F00052303346FFF790FF18B1032002B0BDE808
:10360000F081A3682268B3F5805F07D123692BB9E5
:1036100035F8023BC3F308039362CFE72B780135FB
:103620009362CBE70120E9E70220E7E738B50446DB
:103630000568C3692169A26828680A4361690A4369
:1036400093491A430140206A0A43E1682A606A6884
:1036500022F440520A436A60A269A968024321F435
:1036600030610A43AA608B4A954219D102F594321F
:103670008949D2F8902002F00302B3F5004F8A5C2A
:1036800040F0B380082A00F2AD80DFE812F0260097
:103690007B00E900AB00F500AB00AB00AB00FB002A
:1036A0007E4A954207D102F5FA327D49D2F8902040
:1036B00002F00C02E1E77B4A95422BD102F5F83289
:1036C000D2F8902002F03002102A00F0D28016D8F2
:1036D000DAB9B3F5004F40F09F80FEF79FFF6168B5
:1036E0004A0802EB4003B3FBF1F39BB2002023F046
:1036F0000F02C3F3420321681343CB6038BD202A75
:1037000000F0AB80302A00F0BA80B3F5004F69D0EA
:10371000012038BD644A95420ED102F5F632D2F846
:10372000902002F0C002402A00F0A380D0D9802A65
:1037300000F09380C02AE6E75C4A954210D102F57A
:10374000F432D2F8902002F44072B2F5807F00F09B
:103750009080BDD9B2F5007F7FD0B2F5407FD2E72F
:10376000534A954217D102F59232D2F8902002F4D2
:103770004062B2F5806F7CD007D8002AC5D1B3F57E
:10378000004F54D1FEF75AFFA9E7B2F5006F64D09D
:10379000B2F5406FB7E7474A95420FD102F5E032E4
:1037A000D2F8902002F44052B2F5805F61D08FD9F8
:1037B000B2F5005F51D0B2F5405FA4E73E4A9542B2
:1037C000A3D102F5DE32D2F8902002F44042B2F5E5
:1037D000804F4ED07FF67CAFB2F5004F3DD0B2F5B2
:1037E000404F90E70120002381E7082A90D801A3E9
:1037F00053F822F0193800082F380008353800082F
:10380000113700084B38000811370008113700083D
:103810001137000851380008FEF700FF636800EB1D
:103820005300B0FBF3F080B2E860002038BDFEF733
:1038300005FFF3E76268530803F5740303F51053BB
:10384000B3FBF2F39BB2EB60EFE7FEF71BFEE5E79D
:103850006268530803F50043F2E7B3F5004FE9D17E
:103860006068430803F1F47303F59043B3FBF0F38E
:103870003BE7B3F5004FE8D1FEF704FE2FE7B3F5C1
:10388000004FE5D16068430803F58033EEE700BFE1
:10389000F369FFEF00100140DC6C000800440040B9
:1038A000E06C000800480040004C00400050004020
:1038B0000014014000780040007C0040436ADA07B1
:1038C00010B506D50168846A4A6822F400322243A2
:1038D0004A609C0706D50168C46A4A6822F48032AF
:1038E00022434A60590706D50168046B4A6822F4EE
:1038F000802222434A601A0706D50168446B4A6851
:1039000022F4004222434A60DC0606D50168846B3B
:103910008A6822F4805222438A60990606D501689B
:10392000C46B8A6822F4005222438A605A0610D57A
:103930000168046C4A68B4F5801F22F4801242EAE0
:1039400004024A6005D14A68446C22F4C002224352
:103950004A601B0606D50268816C536823F4002375
:103960000B43536010BD37B500250446C566FDF70F
:103970001BFB226803461268120709D4202300208B
:1039800084F8693084F8680084F86A3003B030BD88
:103990006FF07E424FF40011204600922A46FFF756
:1039A000BBFD0028EAD00320F0E710B5044660B361
:1039B00090F8693003F0FF021BB980F8682001F02D
:1039C000F3FB22682423204684F86930136823F02F
:1039D00001031360FFF72AFE012816D0636A13B1B2
:1039E0002046FFF76BFF236820465A6822F4904276
:1039F0005A609A6822F02A029A601A6842F001021C
:103A0000BDE810401A60FFF7AEBF012010BD0000F6
:103A10000731024621F0070180B500AFADEB010D83
:103A20000449684601F0AAFC684600F05DF9BD460D
:103A300080BD00BFED6C000801390346014410B59C
:103A40001A1A0C1AA24200DB10BD1A780C7803F87F
:103A5000014B01F80129F3E738B50D460B460A2161
:103A60005C1B58B92B193021944210DB28462146A3
:103A7000FFF7E2FF002320462B5538BD90FBF1F401
:103A800001FB1400303003F8010B2046E8E7013455
:103A900003F8011BE8E7000070B52DED028BBDEEC9
:103AA000C08A0E4682B001460446002218EE100A73
:103AB000F0EE408AFFF7D0FF05466EB32E230135A6
:103AC00023543046FCF746FD2C4441EC110B9FED8E
:103AD000140B02F071F8B8EEC88A53EC102B78EE94
:103AE000C87ACDE9002317EE900AFCF745FDDDE921
:103AF0000023FCF795FDFDF743F807EE900A3246E8
:103B00002146FDEEE77A17EE900A02B0BDEC028B7B
:103B1000BDE87040FFF7A0BF02B0BDEC028B70BDE6
:103B200000000000000024404FF47A730322024991
:103B30000248FFF722BD00BFF06C000848010020DA
:103B400010B50F4C00224FF480612046FDF796FF20
:103B50000520FDF72FFA01224FF480612046FDF782
:103B60008DFF0520FDF726FA204600224FF48061E4
:103B7000FDF784FF0520BDE81040FDF71BBA00BF2C
:103B80000010024070B5224D0446224E0022284605
:103B90008021FDF773FF3046E2094FF48061FDF7A5
:103BA0006DFFC4F3801228464FF40041FDF766FF15
:103BB000C4F3401228464FF48041FDF75FFFC4F381
:103BC000001228464FF48051FDF758FFFFF7B8FF69
:103BD000C4F3C00230464FF48061FDF74FFFC4F3D9
:103BE000800228464FF40041FDF748FFC4F340022D
:103BF00028464FF48041FDF741FF04F001022846BA
:103C00004FF48051FDF73AFFBDE87040FFF798BFD1
:103C10000010024000040240012810B50C4602D0FA
:103C200002280BD010BD8020FFF7ACFF04B910BDF7
:103C3000013C1420FFF7A6FFE4B2F7E7C020FFF72E
:103C4000A1FF04B910BD013C1420FFF79BFFE4B2B3
:103C5000F7E7000070B5224D0446224E01222846A7
:103C60008021FDF70BFF3046E2094FF48061FDF73C
:103C700005FFC4F3801228464FF40041FDF7FEFE15
:103C8000C4F3401228464FF48041FDF7F7FEC4F319
:103C9000001228464FF48051FDF7F0FEFFF750FF69
:103CA000C4F3C00230464FF48061FDF7E7FEC4F371
:103CB000800228464FF40041FDF7E0FEC4F34002C5
:103CC00028464FF48041FDF7D9FE04F00102284652
:103CD0004FF48051FDF7D2FEBDE87040FFF730BFD2
:103CE000001002400004024010B5441E14F8010FF9
:103CF00000B910BDFFF7AEFFF8E7000010B5094CA2
:103D00002046FFF7F1FFC020FFF73CFF2046FFF7FA
:103D1000EBFF4FF47A70FDF74DF90120BDE810403C
:103D2000FFF730BFF36C000838B505460F200C468E
:103D3000FDF740F92020FFF725FFFFF701FFFFF710
:103D4000FFFEFFF7FDFE2820FFF71CFF2820FFF7EE
:103D500019FF2820FFF716FF0120FFF713FF0220AD
:103D6000FFF710FF44F00C0040EA4500BDE8384082
:103D7000C0B2FFF707BF000010B50D4C00220421B0
:103D80002046FDF77BFE0520FDF714F901220421F2
:103D90002046FDF773FE0520FDF70CF920460022B2
:103DA0000421FDF76BFE0520BDE81040FDF702B9C8
:103DB0000010024038B505461D4C00224FF48071BA
:103DC0001C48FDF75BFE2046EA094021FDF756FE40
:103DD000C5F3801220462021FDF750FEC5F34012A6
:103DE00020461021FDF74AFEC5F3001220460821A7
:103DF000FDF744FEFFF7C0FFC5F3C0022046402197
:103E0000FDF73CFEC5F3800220462021FDF736FE7B
:103E1000C5F3400220461021FDF730FE05F00102F7
:103E200020460821FDF72AFEBDE83840FFF7A4BF71
:103E30000010024000140240012810B50C4602D0C8
:103E400002280BD010BD8020FFF7B4FF04B910BDCD
:103E5000013C1420FFF7AEFFE4B2F7E7C020FFF704
:103E6000A9FF04B910BD013C1420FFF7A3FFE4B281
:103E7000F7E738B505460F200C46FDF79BF82020E4
:103E8000FFF798FFFFF778FFFFF776FFFFF774FF64
:103E90002820FFF78FFF2820FFF78CFF2820FFF74F
:103EA00089FF0120FFF786FF0220FFF783FF44F020
:103EB0000C0040EA4500BDE83840C0B2FFF77ABFC9
:103EC00038B505461D4C01224FF480711C48FDF7A2
:103ED000D5FD2046EA094021FDF7D0FDC5F380124B
:103EE00020462021FDF7CAFDC5F3401220461021CF
:103EF000FDF7C4FDC5F3001220460821FDF7BEFD05
:103F0000FFF73AFFC5F3C00220464021FDF7B6FD9A
:103F1000C5F3800220462021FDF7B0FDC5F3400225
:103F200020461021FDF7AAFD05F0010220460821D8
:103F3000FDF7A4FDBDE83840FFF71EBF00100240AA
:103F40000014024010B5441E14F8010F00B910BD52
:103F5000FFF7B6FFF8E7000010B5094C2046FFF761
:103F6000F1FFC020FFF726FF2046FFF7EBFF4FF4DD
:103F70007A70FDF71FF80120BDE81040FFF71ABF67
:103F8000F36C000810B5B4B030220021002407A85B
:103F900001F0ECF91422002102A801F0E7F9002158
:103FA000842213A801F0E2F9194B07A81A6C42F019
:103FB00080521A641B6C174A03F080530093009BD5
:103FC000136823F4404343F48043136013680D9453
:103FD00003F440430193019B0223079301230A93B7
:103FE00010230B93FEF7BAF80F23214602A803947F
:103FF0000293049405940694FEF772FA064B13A8F4
:10400000269413932D942F94FEF728FB34B010BD03
:1040100000380240007000400081020000000000F3
:104020002DE9F04F0023A3B0B84A002410930126D5
:1040300051684FF0100A10684FF0110812890D25D1
:10404000119340F23F6B129316ABB14FCDF8624023
:10405000CDF86640ADF86A40DFF8F09203C31A80ED
:10406000FCF78AFFFFF78EFF142221461BA801F000
:104070007DF93B6B22464DF6FC4143F01003A54809
:104080003B633B6B03F010030393039B3B6B43F0D9
:1040900004033B633B6B03F004030493049B3B6BFF
:1040A00043F020033B633B6B03F020030593059B28
:1040B0003B6B43F001033B633B6B03F0010306934F
:1040C000069B3B6B43F002033B633B6B03F0020335
:1040D0000793079B3B6B43F040033B633B6B03F051
:1040E00040030893089B3B6B43F008033B633B6B27
:1040F00003F008030993099BFDF7C0FC22464FF427
:1041000088518548FDF7BAFC224610218348FDF707
:10411000B5FC22464FF2B9418148FDF7AFFC22467B
:104120004FF474617F48FDF7A9FC2246F0217E48D8
:10413000FDF7A4FC4DF6FC431BA976481B931C9687
:104140001D941E94FDF7AAFB4FF400531BA975485C
:104150001B93764B1D941C93FDF7A0FB4FF48853E3
:104160001BA96D481B931C961D941E94FDF796FB8E
:104170001BA96A48CDF86CA0CDF870801D961E94DE
:10418000FDF78CFB44F281431BA965481B931C96E9
:104190001D941E94FDF782FB1BA965481B951C947A
:1041A0001D94FDF77BFB4BF238031BA95C481B9366
:1041B000CDF870801D961E94FDF770FB4FF474636C
:1041C0001BA958481B93CDF870801D961E94FDF7CF
:1041D00065FBF0231BA954481B93CDF870801D96F6
:1041E0001E94FDF75BFB224621462820DFF8608104
:1041F000FDF76EF92820FDF7A3F93B6B2246214617
:1042000043F4800339203B633B6B4A4F03F4800344
:104210000293029BFDF75CF93920FDF791F95246B4
:1042200021461BA801F0A2F8434B4846C9F81C6080
:10423000C9F800304FF48033C9F81460C9F804306D
:1042400001933E4BC9F80840C9F82830C9F810401E
:10425000C9F81840C9F82040C9F82C40C9F80C40EA
:10426000C9F83040FCF7B8FE0623354A1BA948467A
:104270001D931B921C96FDF779F8524621461BA808
:1042800001F074F82F4B4FF08042139418469C6055
:104290001A6049F63F421C615A6040F28F129C61DD
:1042A000DA6014941594FEF7AFFD4FF480521BA909
:1042B00024481B92FEF77EFF13A9224813941594FD
:1042C000FFF77CF821461C221BA801F04FF81E4A7C
:1042D0004046C8F80840C8F81040C8F8184088E8B8
:1042E0000408C722C8F80C20FEF78EFD4046FEF7F2
:1042F000A5FD60221BA940461B9222461C941D94DA
:104300001F94FFF783F8404624E000BFC06C00080C
:104310000038024000100240001402400000024039
:104320000004024000080240000C0240000011108E
:1043300000180240F8010020002001400100000F99
:104340001200001054040020001C0040E402002071
:104350007403002000F000FFBF4A3846FE603A6058
:10436000BE4ABC607A6000923C617C61BC61FC61C9
:104370003C62FDF7E0FC21463846FDF7A3FE2146EE
:104380003846B74FFDF7C4FE009AB64938467A6002
:104390003960FE60BC603C617C61BC61FC613C6278
:1043A000FDF7C9FC21463846FDF78CFE214638460C
:1043B000AD4FFDF7ADFE524621461BA800F0D6FFDB
:1043C000019BAA4A38467B60A94B3A60BB62042332
:1043D0003E61BE61FB613E637E61BC603C62FC622B
:1043E000FC60FCF7F9FD0A231BA938461C961B93B9
:1043F00006231D93FCF7BAFF02231BA938461B9521
:104400001C93FCF7B3FF09231BA9384663251B93B4
:1044100003231C93FCF7AAFF0F231BA938461B9309
:1044200004231C93FCF7A2FF924A934B1046C2F858
:1044300004B01360D560946094611B941C941D9427
:10444000FEF7E2FC1BA98B481B941D94FEF7B6FFF8
:104450008A4B40F21F328A48DD609C609C61009369
:104460001B941C941D94DFF84CB283E80500184699
:10447000FEF7CAFC009B1BA91B9418461D94FEF76F
:104480009DFF40F21F337F4A5846CBF80C50CBF8C3
:1044900008407D4DCBF81040CBF818408BE80C005D
:1044A000FEF7B2FC4FF4165E784A2846AC60EC602A
:1044B0002C61AC61EC612C626C6285E804400C22DA
:1044C0006A61FFF772FA524621461BA8DFF8E8A19D
:1044D00013941494159400F049FF0F236C4A50462E
:1044E000CAF80840CAF81040CAF81440CAF8184080
:1044F0008AE80C004FF6FE72CAF80C20FEF7B8FCF2
:1045000013A95046139414941594FEF757FF2246AE
:104510001BA950461C961B941D941E94FEF7B8FDD3
:104520004846FCF7FDFD04225A493846FCF758FE80
:1045300030462146FFF7F8FB21463046FFF799FC4D
:104540005548FEF738FB4B48FEF735FB009B1846F5
:10455000FEF731FB5846FEF72EFB21464046FEF79C
:10456000C3FE00F083FAFFF7C9FBFFF7F5FC214615
:1045700030464A4EFFF750FB4948FFF7B5FB21464E
:104580000220FFF749FB4748FFF7AEFB4FF47A7371
:10459000142216A92846FEF7F0FFFFF7C5FAD8F84F
:1045A000003005223B4C06215A630120FFF734FB03
:1045B00020680421FFF72CFA0B210120FFF72CFBC8
:1045C00060680421FFF724FA06210220FFF724FB8C
:1045D000A0680421FFF71CFA0B210220FFF71CFB47
:1045E0000421E068FFF714FA2F48FCF779FE002158
:1045F00004460120FFF720FC2C48FFF7A3FC012113
:104600000220FFF719FC2046FBF794FF0CA3D3E927
:104610000023FCF705F80CA3D3E90023FBF74CFEBD
:104620000BA3D3E90023FCF725F90022204BFBF76D
:1046300045FEFCF7A5FA022140E000BFAFF3008081
:104640006666666666664A3F52B81E85EB51E83F6D
:104650007B14AE47E17A643F005800405B3D300078
:10466000BC000020006000402C030020002201401C
:104670000100000F140400200010004094040020EA
:104680000014004000440140480100200048004060
:10469000000001409000002054040020F06C00084D
:1046A000046D00080A6D0008E4020020106D000887
:1046B00000003940B8010020D404002000EE100AA8
:1046C0000AA8FFF7E9F90AA8FFF73CFC10A800F0D8
:1046D0000FFA04210DA89DED100AFFF7DDF9042162
:1046E00013A89DED110AFFF7D7F99DED120A0421D9
:1046F0001BA8FFF7D1F94FF47A730B2231492846F2
:10470000FEF73BFF4FF47A730A220DA92846FEF705
:1047100034FF4FF47A73032231462846FEF72DFF0B
:104720004FF47A730B2228492846FEF726FF4FF4F0
:104730007A730A2213A92846FEF71FFF4FF47A73F3
:10474000032231462846FEF718FF4FF47A730B22F6
:104750001E492846FEF711FF4FF47A730A221BA95F
:104760002846FEF70AFF4FF47A73032231462846A3
:10477000FEF703FFFFF7D8F901211548FDF778F997
:104780000B21D0B90220FFF757FB1248FFF7DAFBE5
:104790004FF4FA70FCF70EFCD8F8003005224FF405
:1047A0007A705A63FCF706FCD8F8003019224FF4EF
:1047B0007A705A63FCF7FEFBF1E60220FFF73CFB40
:1047C0000548E3E71B6D0008266D0008316D000801
:1047D000001802403C6D0008416D00080368B3F109
:1047E000804F2DE9F047044604D14FF480418D48B5
:1047F000FDF749F922688C4B9A422DD18B4DAB685D
:10480000A3F6B833B3F57A6F10D8DFF84CA20026C0
:10481000874F9AF800303E70002B68D100F0AEF957
:1048200000F014FA01238AF800303B70AA6840F2C5
:10483000DC539A4210D8DFF8209200257C4E99F87C
:1048400000303570002B77D100F0E6F900F052FA15
:10485000012389F8003033702268764B9A422AD1BE
:10486000724DEB68A3F6B833B3F57A6F0ED8DFF864
:10487000ECA10026704F9AF800303E70002B7CD1DE
:1048800000F054FA01238AF800303B70EA6840F2E5
:10489000DC539A420FD8DFF8C4910025664E99F890
:1048A00000303570002B40F0878000F099FA01232A
:1048B00089F8003033702268604B9A4240F0AF8034
:1048C0005A4B1B68A3F6B832B2F57A6F00F2A28099
:1048D0005B4B00221A705B4B1B78002B40F08780EB
:1048E0000123584A1370564A1370BDE8F087DFF869
:1048F000709199F800303BB900F05AF900F0C2F914
:10490000012389F8003090E7DFF83C8198F8003007
:104910003BB900F067F900F0D1F9012388F80030C5
:1049200083E700F079F900F0E5F98AF8006089F88A
:10493000006088F8006079E7DFF8248198F800309B
:104940003BB900F04FF900F0B9F9012388F80030C5
:1049500081E73D4F3B7833B900F02AF900F092F936
:1049600001233B7077E700F009F900F06FF989F84F
:10497000005088F800503D706EE7DFF8E89099F835
:1049800000302BB900F0F0F9012389F800307CE702
:10499000DFF8B88098F800302BB900F003FA012353
:1049A00088F8003071E700F01BFA8AF8006089F897
:1049B000006088F8006069E7DFF8A88098F80030A8
:1049C0002BB900F0EFF9012388F8003072E71F4F90
:1049D0003B7823B900F0C8F901233B706AE700F087
:1049E000A5F989F8005088F800503D7063E7184B2E
:1049F0001B7813B90123164A74E7164B1B7813B9B9
:104A00000123144A6EE700230E4A1370104A1370F4
:104A1000104A69E740F2DC5293427FF659AFBDE895
:104A2000F08700BF0004024000100040900000200A
:104A3000A000002000140040A40000200044014019
:104A4000A8000020A9000020A3000020A70000204B
:104A5000AA000020AB000020A1000020A50000203B
:104A6000A2000020A600002070470000F0B587B02B
:104A700001244FF47A7500270DF116030194029575
:104A800075220093D021234617488DF816708DF8B3
:104A90001770FDF759FA9DF81630682B21D10DF1EA
:104AA000170623466B22D0210295019400960E48EA
:104AB000FDF792F907231922D0218DF817302346EC
:104AC0000295019400960848FDF786F90295019435
:104AD000234600961B22D02103488DF81770FDF75E
:104AE0007BF907B0F0BD00BFF80100200000000016
:104AF00070B54FF47A7386B00646432202930623BC
:104B0000D0211D48019304AB00930123FDF71CFA4B
:104B1000BDF81000BDF8125040BABDF814406DBA8F
:104B200080B264BAFBF716FDADB2A4B210A3D3E90C
:104B30000023FBF79FFEFCF723F830602846FBF7C5
:104B400009FD0BA3D3E90023FBF794FEFCF718F84B
:104B500070602046FBF7FEFC05A3D3E90023FBF7BA
:104B600089FEFCF70DF8B06006B070BDAFF30080B1
:104B70000000000000606040F801002010B50B4C00
:104B8000012280212046FCF779FF204600224021A7
:104B9000FCF774FF204600222021FCF76FFF20461F
:104BA00000221021BDE81040FCF768BF000C024055
:104BB00010B50B4C002280212046FCF75FFF2046F9
:104BC00001224021FCF75AFF204600222021FCF759
:104BD00055FF204600221021BDE81040FCF74EBFD3
:104BE000000C024010B50B4C002280212046FCF73F
:104BF00045FF204600224021FCF740FF20460122CD
:104C00002021FCF73BFF204600221021BDE8104088
:104C1000FCF734BF000C024010B50B4C0022802181
:104C20002046FCF72BFF204600224021FCF726FF00
:104C3000204600222021FCF721FF204601221021DE
:104C4000BDE81040FCF71ABF000C024010B50B4C39
:104C5000012220212046FCF711FF204600220821D6
:104C6000FCF70CFF002210210548FCF707FF204647
:104C700000221021BDE81040FCF700BF00040240F4
:104C80000000024010B50B4C002220212046FCF70A
:104C9000F5FE204601220821FCF7F0FE002210213B
:104CA0000548FCF7EBFE204600221021BDE810402D
:104CB000FCF7E4BE000402400000024010B50B4CBB
:104CC000002220212046FCF7D9FE204600220821A0
:104CD000FCF7D4FE012210210548FCF7CFFE204648
:104CE00000221021BDE81040FCF7C8BE00040240BD
:104CF0000000024010B50B4C002220212046FCF79A
:104D0000BDFE204600220821FCF7B8FE002210213B
:104D10000548FCF7B3FE204601221021BDE81040F3
:104D2000FCF7ACBE000402400000024010B50D4C80
:104D300001224FF480712046FCF7A0FE204600229D
:104D40004FF40071FCF79AFE204600224FF4806178
:104D5000FCF794FE204600224FF40061BDE81040AD
:104D6000FCF78CBE0008024010B50D4C00224FF439
:104D700080712046FCF782FE204601224FF400712C
:104D8000FCF77CFE204600224FF48061FCF776FEA3
:104D9000204600224FF40061BDE81040FCF76EBED3
:104DA0000008024010B50D4C00224FF480712046DF
:104DB000FCF764FE204600224FF40071FCF75EFE13
:104DC000204601224FF48061FCF758FE2046002265
:104DD0004FF40061BDE81040FCF750BE00080240EF
:104DE00010B50D4C00224FF480712046FCF746FEB2
:104DF000204600224FF40071FCF740FE20460022BE
:104E00004FF48061FCF73AFE204601224FF4006126
:104E1000BDE81040FCF732BE000802400A4B82B0E9
:104E20001A6C42F080521A641A6C02F0805200929E
:104E3000009A5A6C42F480425A645B6C03F48043DB
:104E40000193019B02B070470038024070B51422F4
:104E50008AB0064600210DEB020000F087FA3368A5
:104E60002E4A93420BD12E4B5A6C42F480725A64F4
:104E70005B6C03F480730193019B0AB070BD294AF7
:104E80009342FAD1264B032405A927485A6C0025E2
:104E900042F480625A645A6C02F480620292029A6E
:104EA0001A6B42F020021A631A6B02F0200203927E
:104EB000039A1A6B42F004021A631B6B069403F008
:104EC00004030493049B28230593FCF7E7FC0923C0
:104ED000164805A906940593154C0795FCF7DEFCCA
:104EE0004FF08063134A2046A560E5602562656245
:104EF00084E80C004FF4806323614FF480536361B6
:104F00004FF48043A3614FF48073E361FCF750FBDF
:104F100008B1FFF7A9FDB463A663AEE70020014026
:104F20000038024000220140001402400008024004
:104F3000440200202864024010B514228AB00446BE
:104F400000210DEB020000F011FA2368254A93427C
:104F500021D1254C122205A92448236B43F02003BC
:104F60002363236B0692012203F02003079201932F
:104F7000019B03230593089304230993FCF78EFCFC
:104F8000236C43F480032364236C03F480030293B3
:104F9000029B0AB010BD164A9342FAD1124C05A9E1
:104FA0001248236B43F020032363236B03F0200399
:104FB0000393039B4FF4404305931223069301236D
:104FC00007930323089304230993FCF767FC236CDE
:104FD00043F080732364236C03F080730493049B79
:104FE000D7E700BF005800400038024000140240DC
:104FF0000060004010B588B004461422002103A8C8
:1050000000F0B4F922681A4B9A422ED103F59C3372
:1050100003A918485A6C42F001025A645A6C02F013
:1050200001020192019A1A6B42F010021A631B6B83
:1050300003F010030293029B4FF4007303930223C7
:10504000049301230793FCF729FC00221920114641
:10505000FCF73EFA1920FCF773FA00221B201146D8
:10506000FCF736FA1B20FCF76BFA08B010BD00BF46
:1050700000000140001002407FB50368B3F1804F8B
:1050800015D103F50E331C201A6C42F001021A648C
:1050900000221B6C114603F001030193019BFCF7F6
:1050A00017FA1C20FCF74CFA07B05DF804FB254A00
:1050B000934210D1244B36201A6C42F010021A642D
:1050C00000221B6C114603F010030293029BFCF7B5
:1050D000FFF93620E6E71D4A934210D11A4B3720DC
:1050E0001A6C42F020021A6400221B6C114603F075
:1050F00020030393039BFCF7EBF93720D2E7144A14
:10510000934210D1104B19205A6C42F400325A6469
:1051100000225B6C114603F400330493049BFCF7FC
:10512000D7F91920BEE70B4A9342BDD1064B1A6C42
:1051300042F080021A641B6C03F080030593059B08
:10514000B2E700BF001000400038024000140040E9
:1051500000440140001C004010B586B004461422F3
:10516000002101A800F002F922680D4B9A4214D1E7
:1051700003F5073301A90B481A6B42F001021A63C9
:105180001B6B03F001030093009B40230193022358
:10519000029309230593FCF781FB06B010BD00BF05
:1051A000001C00400000024010B588B004461422E4
:1051B000002103A800F0DAF82268134B9A4220D1AC
:1051C00003F5F83303A911481A6C42F480221A64DB
:1051D0001A6C02F480220192019A1A6B42F00802C2
:1051E0001A631B6B03F008030293029B4FF4407396
:1051F0000393022304930323069307230793FCF7E7
:105200004DFB08B010BD00BF00480040000C02403C
:105210007047FEE7FEE7FEE7FEE77047704770471E
:10522000FBF7B6BE08B50448FDF7D5FC0348BDE85A
:105230000840FDF7D0BC00BFD4040020B801002016
:105240000148FDF7C8BC00BFD40400200148FDF7A9
:10525000C2BC00BF540400204FF40050FCF718BC3F
:105260000148FDF7B8BC00BF140400200148FDF759
:10527000B2BC00BF940400200148FCF755BA00BF3F
:10528000440200200F490020D1F8883043F4700315
:10529000C1F888300C4B1A6842F001021A6098601D
:1052A0001A6822F0847222F480321A60074A5A6027
:1052B0001A6822F480221A60D8604FF000638B6075
:1052C000704700BF00ED00E00038024010300024BD
:1052D000DFF834D0002103E00C4B5B58435004311D
:1052E0000B480C4B42189A42F6D30B4A02E00023BB
:1052F00042F8043B094B9A42F9D3FFF7C3FF00F091
:1053000011F8FEF78DFE704700000520E86D0008DB
:105310000000002074000020740000201805002008
:10532000FEE7000070B50D4E0D4CA41BA410002527
:10533000A54209D10B4E0C4C01F0B6FCA41BA410E5
:105340000025A54205D170BD56F825309847013596
:10535000EEE756F8253098470135F2E7E06D000892
:10536000E06D0008E06D0008E46D000802440346AB
:10537000934200D1704703F8011BF9E70EB400B562
:105380009CB04FF402711DABADF814100290069062
:105390006FF000410A48049107914FF6FF7153F8EE
:1053A000042BADF816100068019302A900F066F80E
:1053B000029B00221A701CB05DF804EB03B070472A
:1053C0000C0000202DE9F0478E689E4282460C4674
:1053D0009146984635D88A8912F4906F31D0256865
:1053E00009696F1A6569022305EB450595FBF3F51D
:1053F00008F101033B449D4238BF1D46530531D59A
:10540000294600F039FB064650B90C23CAF8003093
:10541000A38943F04003A3814FF0FF30BDE8F0873C
:105420003A46216900F0B4FAA38923F4906343F06B
:105430008003A381266165613E44ED1B2660A56063
:105440004646464528BF464632464946206800F053
:10545000AAFAA3689B1BA36023681E442660002051
:10546000BDE8F0872A4600F065FB06460028E1D13A
:105470002169504600F0B2FAC7E700002DE9F04F6D
:105480009DB0804603938B891C060D4616460FD5AA
:105490000B696BB9402100F0EFFA2860286128B948
:1054A0000C23C8F800304FF0FF30C5E040236B619B
:1054B0000023099320238DF8293030238DF82A30DA
:1054C0004FF0010B37463C4614F8013B002B3CD112
:1054D000B7EB060A0BD05346324629464046FFF743
:1054E00071FF013000F0A380099B534409933B787E
:1054F000002B00F09C8000234FF0FF3204930793B1
:10550000059206938DF853301A930522217850485E
:10551000FAF77EFE671C049BD8B9D90644BF202247
:105520008DF853201A0744BF2B228DF85320227880
:105530002A2A16D0079A00210A20274601343B78F0
:10554000303B092B51D9C9B111E0252BC0D02746DA
:10555000B9E73F4A801A0BFA00F0184304903C4622
:10556000D3E7039A111D12680391002A01DB079209
:1055700004E0524243F00203079204933B782E2B3F
:105580000ED17B782A2B07F1010132D1039B1A1D22
:105590001B680392002BB8BF4FF0FF33023705930F
:1055A0002C4C397803222046FAF732FE38B14023DA
:1055B000001B03FA00F0049B03430493013739787E
:1055C00025488DF8281006227E1CFAF721FE0028B7
:1055D00035D0224BFBB9039B073323F00703083375
:1055E0000393099B4B4409936CE700FB02320121B2
:1055F000A3E70023059318460A240F4601313A78A1
:10560000303A092A03D9002BCAD00590C8E704FB19
:1056100000200123F1E703AB00932A46104B04A9B5
:105620004046AFF30080B0F1FF3F8146D9D1AB894E
:105630005B063FF538AF09981DB0BDE8F08F03ABAE
:1056400000932A46064B04A9404600F081F8EAE799
:105650005E6D0008646D0008686D000800000000C1
:10566000C55300082DE9F04791461F468A680B692B
:10567000DDF820809342B8BF1346C9F8003091F896
:10568000432006460C4612B10133C9F800302368A6
:10569000990642BFD9F800300233C9F800302568B6
:1056A00015F0060507D104F1190AE368D9F80020BE
:1056B0009B1A9D4229DB94F843302268003318BFBF
:1056C000012392062ED404F1430239463046C047E6
:1056D000013021D02368E568D9F8002003F00603E3
:1056E000042B08BFAD1AA36822690CBF25EAE57533
:1056F00000259342C4BF9B1AED184FF000091A34DD
:105700004D451BD10020BDE8F087012352463946A4
:105710003046C047013003D14FF0FF30BDE8F0877D
:105720000135C2E7E1185A1C302081F843002244B9
:1057300094F8451082F843100233C4E7012322464F
:1057400039463046C0470130E6D009F10109D7E7B4
:105750002DE9F04317460A7E85B06E2A9846064624
:105760000C460C9B01F1430E00F0BC801AD8632A52
:105770002ED00AD8002A00F0C880582A00F08A806B
:1057800004F1420584F842202AE0642A01D0692A03
:10579000F6D121681A6811F0800F23D0111D19600D
:1057A000136827E0732A00F0B48008D86F2A2AD043
:1057B000702AE5D10A6842F020020A6003E0752AE7
:1057C00021D0782ADCD1782284F845206E4964E023
:1057D0001A6801F14205111D1960136884F84230FE
:1057E0000123A3E011F0400F02F104011960D7D0AA
:1057F000B2F90030002B03DA2D225B4284F84320FB
:1058000062490A2217E02068196810F0800F03D05F
:10581000081D18600B6806E010F0400F01F104004D
:105820001860F7D00B8859496F2A14BF0A22082242
:10583000002084F843006568A560002DC0F29C80BC
:10584000206820F004002060002B3FD1002D40F0A4
:1058500095807546082A0BD12368DA0708D5236995
:1058600062689A42DEBF302305F8013C05F1FF353E
:10587000AEEB05032361CDF800803B4603AA214629
:105880003046FFF7EFFE013055D14FF0FF3005B045
:10589000BDE8F08381F845203C492268186812F081
:1058A000800F00F104051D6001D0036802E0550679
:1058B000FBD50388D00744BF42F0200222601BB909
:1058C000226822F0200222601022B1E77546B3FB65
:1058D000F2F002FB1033CB5C05F8013D03460028D3
:1058E000F5D1B7E708681A68496910F0800F04D04D
:1058F000101D18601368196007E010F0400F02F1E6
:10590000040018601368F6D01980002323617546DF
:10591000B1E71A68111D19601568626800212846F0
:10592000FAF776FC08B1401B6060636823610023CE
:1059300084F843309FE723692A4639463046C047FA
:105940000130A2D023689B0707D5002504F119096F
:10595000E368039A9B1A9D4205DBE068039B98422B
:10596000B8BF184693E701234A4639463046C04738
:1059700001308AD00135EBE7002BA7D10B7884F8F2
:10598000423004F1420565E7806D00086F6D000844
:1059900010B5431E0A44914200D110BD11F8014BCD
:1059A00003F8014FF7E7884210B501EB020303D873
:1059B000421E99420CD110BD9842F9D28118D21AD8
:1059C000D34200D110BD13F8014D01F8014DF7E7A6
:1059D00011F8014B02F8014FEBE7000038B505461E
:1059E000002945D051F8043C0C1F002BB8BFE41827
:1059F00000F0D6F81F4A1368104633B9636014608C
:105A00002846BDE8384000F0CCB8A3420CD9216844
:105A10006218934204BF1A685B68636004BF52183F
:105A200022600460ECE713465A680AB1A242FAD930
:105A300019685818A0420BD12068014458188242B6
:105A40001960DDD1106852685A6001441960D7E7C7
:105A500002D90C232B60D3E7206821188A4204BFA7
:105A600011685268626004BF091821605C60C7E772
:105A700038BD00BFAC00002070B5CD1C25F003057B
:105A800008350C2D38BF0C25002D064601DBA94238
:105A900003D90C233360002070BD00F081F8234A45
:105AA0001468214691B9224C23681BB9304600F096
:105AB00067F820602946304600F062F8431C26D182
:105AC0000C233360304600F06CF8E4E70B685B1B96
:105AD0001AD40B2B0FD90B60CD50CC18304600F0E8
